{
	"_format": "hh-sol-artifact-1",
	"contractName": "InvoiceContract",
	"sourceName": "contracts/Invoice.sol",
	"abi": [
		{
			"anonymous": false,
			"inputs": [
				{
					"indexed": true,
					"internalType": "bytes32",
					"name": "invoiceId",
					"type": "bytes32"
				},
				{
					"indexed": true,
					"internalType": "address",
					"name": "invoiceOwner",
					"type": "address"
				},
				{
					"indexed": false,
					"internalType": "bytes32",
					"name": "invoiceDataId",
					"type": "bytes32"
				},
				{
					"indexed": true,
					"internalType": "uint256",
					"name": "tokenId",
					"type": "uint256"
				}
			],
			"name": "CreateInvoice",
			"type": "event"
		},
		{
			"inputs": [
				{
					"internalType": "string",
					"name": "_invoiceUri",
					"type": "string"
				},
				{
					"internalType": "uint256",
					"name": "tokenId",
					"type": "uint256"
				}
			],
			"name": "createInvoice",
			"outputs": [],
			"stateMutability": "nonpayable",
			"type": "function"
		},
		{
			"inputs": [
				{
					"internalType": "bytes32",
					"name": "_invoiceId",
					"type": "bytes32"
				}
			],
			"name": "getinvoice",
			"outputs": [
				{
					"internalType": "address",
					"name": "",
					"type": "address"
				},
				{
					"internalType": "bytes32",
					"name": "",
					"type": "bytes32"
				},
				{
					"internalType": "uint256",
					"name": "",
					"type": "uint256"
				}
			],
			"stateMutability": "view",
			"type": "function"
		}
	],
	"bytecode": "0x608060405234801561001057600080fd5b50610577806100206000396000f3fe608060405234801561001057600080fd5b50600436106100365760003560e01c8063d4280d5a1461003b578063ee9aa4e914610057575b600080fd5b610055600480360381019061005091906102df565b610089565b005b610071600480360381019061006c91906102b6565b6101ce565b604051610080939291906103eb565b60405180910390f35b60003390506000829050600085856040516020016100a892919061043d565b604051602081830303815290604052805190602001209050600083826040516020016100d59291906103bf565b6040516020818303038152906040528051906020012090508360008083815260200190815260200160002060000160006101000a81548173ffffffffffffffffffffffffffffffffffffffff021916908373ffffffffffffffffffffffffffffffffffffffff16021790555081600080838152602001908152602001600020600101819055508260008083815260200190815260200160002060020181905550828473ffffffffffffffffffffffffffffffffffffffff16827fe85d51fb6f9ab3d18020dd99f17d486ad5ef9d1f94515154a49dd0e570bae453856040516101bd9190610422565b60405180910390a450505050505050565b600080600080600085815260200190815260200160002060000160009054906101000a900473ffffffffffffffffffffffffffffffffffffffff1660008086815260200190815260200160002060010154600080878152602001908152602001600020600201549250925092509193909250565b60008135905061025181610513565b92915050565b60008083601f84011261026957600080fd5b8235905067ffffffffffffffff81111561028257600080fd5b60208301915083600182028301111561029a57600080fd5b9250929050565b6000813590506102b08161052a565b92915050565b6000602082840312156102c857600080fd5b60006102d684828501610242565b91505092915050565b6000806000604084860312156102f457600080fd5b600084013567ffffffffffffffff81111561030e57600080fd5b61031a86828701610257565b9350935050602061032d868287016102a1565b9150509250925092565b61034081610472565b82525050565b61035761035282610472565b6104c7565b82525050565b61036681610484565b82525050565b61037d61037882610484565b6104d9565b82525050565b600061038f8385610461565b935061039c8385846104b8565b6103a5836104f5565b840190509392505050565b6103b9816104ae565b82525050565b60006103cb8285610346565b6014820191506103db828461036c565b6020820191508190509392505050565b60006060820190506104006000830186610337565b61040d602083018561035d565b61041a60408301846103b0565b949350505050565b6000602082019050610437600083018461035d565b92915050565b60006020820190508181036000830152610458818486610383565b90509392505050565b600082825260208201905092915050565b600061047d8261048e565b9050919050565b6000819050919050565b600073ffffffffffffffffffffffffffffffffffffffff82169050919050565b6000819050919050565b82818337600083830152505050565b60006104d2826104e3565b9050919050565b6000819050919050565b60006104ee82610506565b9050919050565b6000601f19601f8301169050919050565b60008160601b9050919050565b61051c81610484565b811461052757600080fd5b50565b610533816104ae565b811461053e57600080fd5b5056fea264697066735822122076bf70b315bf5829ba71e22c44137400ce421870f0008ea421690818bc16336864736f6c63430008000033",
	"linkReferences": {},
	"deployedLinkReferences": {}
}