{
  "_format": "hh-sol-artifact-1",
  "contractName": "AgreementContract",
  "sourceName": "contracts/AgreementContract.sol",
  "abi": [
    {
      "anonymous": false,
      "inputs": [
        {
          "indexed": true,
          "internalType": "address",
          "name": "buyer",
          "type": "address"
        },
        {
          "indexed": true,
          "internalType": "address",
          "name": "seller",
          "type": "address"
        },
        {
          "indexed": false,
          "internalType": "uint256",
          "name": "price",
          "type": "uint256"
        },
        {
          "indexed": false,
          "internalType": "address",
          "name": "agreementAddress",
          "type": "address"
        },
        {
          "indexed": false,
          "internalType": "string",
          "name": "title",
          "type": "string"
        },
        {
          "indexed": false,
          "internalType": "string",
          "name": "description",
          "type": "string"
        }
      ],
      "name": "CreateAgreement",
      "type": "event"
    },
    {
      "inputs": [
        {
          "internalType": "address payable",
          "name": "_buyer",
          "type": "address"
        },
        {
          "internalType": "address payable",
          "name": "_seller",
          "type": "address"
        },
        {
          "internalType": "uint256",
          "name": "_price",
          "type": "uint256"
        },
        {
          "internalType": "uint256",
          "name": "_statePercent",
          "type": "uint256"
        },
        {
          "internalType": "uint256",
          "name": "_sellerPercent",
          "type": "uint256"
        },
        {
          "internalType": "string",
          "name": "_title",
          "type": "string"
        },
        {
          "internalType": "string",
          "name": "_description",
          "type": "string"
        }
      ],
      "name": "agreementCreate",
      "outputs": [],
      "stateMutability": "nonpayable",
      "type": "function"
    },
    {
      "inputs": [
        {
          "internalType": "address",
          "name": "",
          "type": "address"
        }
      ],
      "name": "agreementImap",
      "outputs": [
        {
          "internalType": "uint256",
          "name": "",
          "type": "uint256"
        }
      ],
      "stateMutability": "view",
      "type": "function"
    },
    {
      "inputs": [
        {
          "internalType": "address",
          "name": "",
          "type": "address"
        },
        {
          "internalType": "uint256",
          "name": "",
          "type": "uint256"
        }
      ],
      "name": "agreementMap",
      "outputs": [
        {
          "internalType": "contract Agreement",
          "name": "",
          "type": "address"
        }
      ],
      "stateMutability": "view",
      "type": "function"
    },
    {
      "inputs": [
        {
          "internalType": "uint256",
          "name": "",
          "type": "uint256"
        }
      ],
      "name": "agreements",
      "outputs": [
        {
          "internalType": "contract Agreement",
          "name": "",
          "type": "address"
        }
      ],
      "stateMutability": "view",
      "type": "function"
    },
    {
      "inputs": [
        {
          "internalType": "address",
          "name": "_addr",
          "type": "address"
        }
      ],
      "name": "getAgreementByAddress",
      "outputs": [
        {
          "internalType": "contract Agreement",
          "name": "",
          "type": "address"
        }
      ],
      "stateMutability": "view",
      "type": "function"
    },
    {
      "inputs": [
        {
          "internalType": "uint256",
          "name": "_index",
          "type": "uint256"
        }
      ],
      "name": "getAgreementByIndex",
      "outputs": [
        {
          "internalType": "contract Agreement",
          "name": "",
          "type": "address"
        }
      ],
      "stateMutability": "view",
      "type": "function"
    },
    {
      "inputs": [
        {
          "internalType": "address",
          "name": "_party",
          "type": "address"
        }
      ],
      "name": "getAgreementByParties",
      "outputs": [
        {
          "internalType": "contract Agreement[]",
          "name": "",
          "type": "address[]"
        }
      ],
      "stateMutability": "view",
      "type": "function"
    },
    {
      "inputs": [],
      "name": "getAllAgreements",
      "outputs": [
        {
          "internalType": "contract Agreement[]",
          "name": "",
          "type": "address[]"
        }
      ],
      "stateMutability": "view",
      "type": "function"
    }
  ],
  "bytecode": "0x608060405234801561001057600080fd5b506148fc806100206000396000f3fe60806040523480156200001157600080fd5b5060043610620000945760003560e01c8063947a58e81162000063578063947a58e8146200015d578063b6c7f9a21462000193578063bd14de9614620001b3578063f75af6f314620001e95762000094565b806321342a9714620000995780634e6873c714620000cf57806362272f9514620000f157806391a5caaf1462000127575b600080fd5b620000b76004803603810190620000b1919062000ac8565b6200021f565b604051620000c6919062000cfe565b60405180910390f35b620000d96200026e565b604051620000e8919062000cda565b60405180910390f35b6200010f600480360381019062000109919062000b09565b620002fe565b6040516200011e919062000cfe565b60405180910390f35b6200014560048036038101906200013f919062000991565b6200036c565b60405162000154919062000cfe565b60405180910390f35b6200017b600480360381019062000175919062000991565b6200041f565b6040516200018a919062000d1b565b60405180910390f35b620001b16004803603810190620001ab9190620009e9565b62000437565b005b620001d16004803603810190620001cb919062000b09565b62000782565b604051620001e0919062000cfe565b60405180910390f35b62000207600480360381019062000201919062000991565b620007c2565b60405162000216919062000cda565b60405180910390f35b600260205281600052604060002081815481106200023c57600080fd5b906000526020600020016000915091509054906101000a900473ffffffffffffffffffffffffffffffffffffffff1681565b60606000805480602002602001604051908101604052809291908181526020018280548015620002f457602002820191906000526020600020905b8160009054906101000a900473ffffffffffffffffffffffffffffffffffffffff1673ffffffffffffffffffffffffffffffffffffffff1681526020019060010190808311620002a9575b5050505050905090565b60008082815481106200033a577f4e487b7100000000000000000000000000000000000000000000000000000000600052603260045260246000fd5b9060005260206000200160009054906101000a900473ffffffffffffffffffffffffffffffffffffffff169050919050565b600080600360008473ffffffffffffffffffffffffffffffffffffffff1673ffffffffffffffffffffffffffffffffffffffff16815260200190815260200160002054905060008181548110620003ec577f4e487b7100000000000000000000000000000000000000000000000000000000600052603260045260246000fd5b9060005260206000200160009054906101000a900473ffffffffffffffffffffffffffffffffffffffff16915050919050565b60036020528060005260406000206000915090505481565b6000878787878787876040516200044e90620008b5565b62000460979695949392919062000c4f565b604051809103906000f0801580156200047d573d6000803e3d6000fd5b5090506000819080600181540180825580915050600190039060005260206000200160009091909190916101000a81548173ffffffffffffffffffffffffffffffffffffffff021916908373ffffffffffffffffffffffffffffffffffffffff1602179055506000620004f1600162000891565b905060008273ffffffffffffffffffffffffffffffffffffffff16632a8732616040518163ffffffff1660e01b815260040160206040518083038186803b1580156200053c57600080fd5b505afa15801562000551573d6000803e3d6000fd5b505050506040513d601f19601f82011682018060405250810190620005779190620009bd565b905081600360008373ffffffffffffffffffffffffffffffffffffffff1673ffffffffffffffffffffffffffffffffffffffff16815260200190815260200160002081905550620005c960016200089f565b600260008b73ffffffffffffffffffffffffffffffffffffffff1673ffffffffffffffffffffffffffffffffffffffff168152602001908152602001600020839080600181540180825580915050600190039060005260206000200160009091909190916101000a81548173ffffffffffffffffffffffffffffffffffffffff021916908373ffffffffffffffffffffffffffffffffffffffff160217905550600260008a73ffffffffffffffffffffffffffffffffffffffff1673ffffffffffffffffffffffffffffffffffffffff168152602001908152602001600020839080600181540180825580915050600190039060005260206000200160009091909190916101000a81548173ffffffffffffffffffffffffffffffffffffffff021916908373ffffffffffffffffffffffffffffffffffffffff1602179055508873ffffffffffffffffffffffffffffffffffffffff168a73ffffffffffffffffffffffffffffffffffffffff167f92eb2f15c8545c131d2cdd2959f5d2f98b26e65636f444b47a7f2bfd8c95b3748a8489896040516200076e949392919062000d38565b60405180910390a350505050505050505050565b600081815481106200079357600080fd5b906000526020600020016000915054906101000a900473ffffffffffffffffffffffffffffffffffffffff1681565b6060600260008373ffffffffffffffffffffffffffffffffffffffff1673ffffffffffffffffffffffffffffffffffffffff1681526020019081526020016000208054806020026020016040519081016040528092919081815260200182805480156200088557602002820191906000526020600020905b8160009054906101000a900473ffffffffffffffffffffffffffffffffffffffff1673ffffffffffffffffffffffffffffffffffffffff16815260200190600101908083116200083a575b50505050509050919050565b600081600001549050919050565b6001816000016000828254019250508190555050565b61392a8062000f9d83390190565b6000620008da620008d48462000dc7565b62000d93565b905082815260208101848484011115620008f357600080fd5b6200090084828562000ec9565b509392505050565b600081359050620009198162000f4e565b92915050565b600081519050620009308162000f4e565b92915050565b600081359050620009478162000f68565b92915050565b600082601f8301126200095f57600080fd5b813562000971848260208601620008c3565b91505092915050565b6000813590506200098b8162000f82565b92915050565b600060208284031215620009a457600080fd5b6000620009b48482850162000908565b91505092915050565b600060208284031215620009d057600080fd5b6000620009e0848285016200091f565b91505092915050565b600080600080600080600060e0888a03121562000a0557600080fd5b600062000a158a828b0162000936565b975050602062000a288a828b0162000936565b965050604062000a3b8a828b016200097a565b955050606062000a4e8a828b016200097a565b945050608062000a618a828b016200097a565b93505060a088013567ffffffffffffffff81111562000a7f57600080fd5b62000a8d8a828b016200094d565b92505060c088013567ffffffffffffffff81111562000aab57600080fd5b62000ab98a828b016200094d565b91505092959891949750929550565b6000806040838503121562000adc57600080fd5b600062000aec8582860162000908565b925050602062000aff858286016200097a565b9150509250929050565b60006020828403121562000b1c57600080fd5b600062000b2c848285016200097a565b91505092915050565b600062000b43838362000bdb565b60208301905092915050565b62000b5a8162000e63565b82525050565b62000b6b8162000e4f565b82525050565b600062000b7e8262000e0a565b62000b8a818562000e2d565b935062000b978362000dfa565b8060005b8381101562000bce57815162000bb2888262000b35565b975062000bbf8362000e20565b92505060018101905062000b9b565b5085935050505092915050565b62000be68162000ea1565b82525050565b62000bf78162000ea1565b82525050565b600062000c0a8262000e15565b62000c16818562000e3e565b935062000c2881856020860162000ed8565b62000c338162000f3d565b840191505092915050565b62000c498162000e97565b82525050565b600060e08201905062000c66600083018a62000b4f565b62000c75602083018962000b4f565b62000c84604083018862000c3e565b62000c93606083018762000c3e565b62000ca2608083018662000c3e565b81810360a083015262000cb6818562000bfd565b905081810360c083015262000ccc818462000bfd565b905098975050505050505050565b6000602082019050818103600083015262000cf6818462000b71565b905092915050565b600060208201905062000d15600083018462000bec565b92915050565b600060208201905062000d32600083018462000c3e565b92915050565b600060808201905062000d4f600083018762000c3e565b62000d5e602083018662000b60565b818103604083015262000d72818562000bfd565b9050818103606083015262000d88818462000bfd565b905095945050505050565b6000604051905081810181811067ffffffffffffffff8211171562000dbd5762000dbc62000f0e565b5b8060405250919050565b600067ffffffffffffffff82111562000de55762000de462000f0e565b5b601f19601f8301169050602081019050919050565b6000819050602082019050919050565b600081519050919050565b600081519050919050565b6000602082019050919050565b600082825260208201905092915050565b600082825260208201905092915050565b600062000e5c8262000e77565b9050919050565b600062000e708262000e77565b9050919050565b600073ffffffffffffffffffffffffffffffffffffffff82169050919050565b6000819050919050565b600062000eae8262000eb5565b9050919050565b600062000ec28262000e77565b9050919050565b82818337600083830152505050565b60005b8381101562000ef857808201518184015260208101905062000edb565b8381111562000f08576000848401525b50505050565b7f4e487b7100000000000000000000000000000000000000000000000000000000600052604160045260246000fd5b6000601f19601f8301169050919050565b62000f598162000e4f565b811462000f6557600080fd5b50565b62000f738162000e63565b811462000f7f57600080fd5b50565b62000f8d8162000e97565b811462000f9957600080fd5b5056fe60806040523480156200001157600080fd5b506040516200392a3803806200392a833981810160405281019062000037919062000493565b8573ffffffffffffffffffffffffffffffffffffffff168773ffffffffffffffffffffffffffffffffffffffff161415620000a9576040517f08c379a0000000000000000000000000000000000000000000000000000000008152600401620000a090620005da565b60405180910390fd5b866000806101000a81548173ffffffffffffffffffffffffffffffffffffffff021916908373ffffffffffffffffffffffffffffffffffffffff16021790555085600160006101000a81548173ffffffffffffffffffffffffffffffffffffffff021916908373ffffffffffffffffffffffffffffffffffffffff16021790555084600281905550836003819055508260048190555081600590805190602001906200015792919062000343565b5080600690805190602001906200017092919062000343565b50620001a96064620001956003546002546200031360201b620024551790919060201c565b6200032b60201b6200246b1790919060201c565b600760008060009054906101000a900473ffffffffffffffffffffffffffffffffffffffff1673ffffffffffffffffffffffffffffffffffffffff1673ffffffffffffffffffffffffffffffffffffffff16815260200190815260200160002081905550620002456064620002316004546002546200031360201b620024551790919060201c565b6200032b60201b6200246b1790919060201c565b60076000600160009054906101000a900473ffffffffffffffffffffffffffffffffffffffff1673ffffffffffffffffffffffffffffffffffffffff1673ffffffffffffffffffffffffffffffffffffffff168152602001908152602001600020819055506001600a60006101000a81548160ff02191690831515021790555030600a60026101000a81548173ffffffffffffffffffffffffffffffffffffffff021916908373ffffffffffffffffffffffffffffffffffffffff16021790555050505050505050620008a7565b60008183620003239190620006ac565b905092915050565b600081836200033b919062000674565b905092915050565b828054620003519062000781565b90600052602060002090601f016020900481019282620003755760008555620003c1565b82601f106200039057805160ff1916838001178555620003c1565b82800160010185558215620003c1579182015b82811115620003c0578251825591602001919060010190620003a3565b5b509050620003d09190620003d4565b5090565b5b80821115620003ef576000816000905550600101620003d5565b5090565b60006200040a620004048462000630565b620005fc565b9050828152602081018484840111156200042357600080fd5b620004308482856200074b565b509392505050565b600081519050620004498162000873565b92915050565b600082601f8301126200046157600080fd5b815162000473848260208601620003f3565b91505092915050565b6000815190506200048d816200088d565b92915050565b600080600080600080600060e0888a031215620004af57600080fd5b6000620004bf8a828b0162000438565b9750506020620004d28a828b0162000438565b9650506040620004e58a828b016200047c565b9550506060620004f88a828b016200047c565b94505060806200050b8a828b016200047c565b93505060a088015167ffffffffffffffff8111156200052957600080fd5b620005378a828b016200044f565b92505060c088015167ffffffffffffffff8111156200055557600080fd5b620005638a828b016200044f565b91505092959891949750929550565b60006200058160328362000663565b91507f4275796572204164647265737320616e642073656c6c6572204164647265737360008301527f2063616e2774206265207468652073616d6500000000000000000000000000006020830152604082019050919050565b60006020820190508181036000830152620005f58162000572565b9050919050565b6000604051905081810181811067ffffffffffffffff8211171562000626576200062562000844565b5b8060405250919050565b600067ffffffffffffffff8211156200064e576200064d62000844565b5b601f19601f8301169050602081019050919050565b600082825260208201905092915050565b6000620006818262000741565b91506200068e8362000741565b925082620006a157620006a0620007e6565b5b828204905092915050565b6000620006b98262000741565b9150620006c68362000741565b9250817fffffffffffffffffffffffffffffffffffffffffffffffffffffffffffffffff0483118215151615620007025762000701620007b7565b5b828202905092915050565b60006200071a8262000721565b9050919050565b600073ffffffffffffffffffffffffffffffffffffffff82169050919050565b6000819050919050565b60005b838110156200076b5780820151818401526020810190506200074e565b838111156200077b576000848401525b50505050565b600060028204905060018216806200079a57607f821691505b60208210811415620007b157620007b062000815565b5b50919050565b7f4e487b7100000000000000000000000000000000000000000000000000000000600052601160045260246000fd5b7f4e487b7100000000000000000000000000000000000000000000000000000000600052601260045260246000fd5b7f4e487b7100000000000000000000000000000000000000000000000000000000600052602260045260246000fd5b7f4e487b7100000000000000000000000000000000000000000000000000000000600052604160045260246000fd5b6200087e816200070d565b81146200088a57600080fd5b50565b620008988162000741565b8114620008a457600080fd5b50565b61307380620008b76000396000f3fe6080604052600436106100705760003560e01c80634e69d5601161004e5780634e69d560146100b45780634f4b5e66146100df5780637022b58e146100f6578063ea8a1af01461010057610070565b80632a1440d6146100755780632a8732611461007f5780633a4b66f1146100aa575b600080fd5b61007d61010a565b005b34801561008b57600080fd5b50610094610679565b6040516100a19190612b95565b60405180910390f35b6100b261069f565b005b3480156100c057600080fd5b506100c9610b1c565b6040516100d69190612d90565b60405180910390f35b3480156100eb57600080fd5b506100f4610f27565b005b6100fe611323565b005b610108611a83565b005b60008054906101000a900473ffffffffffffffffffffffffffffffffffffffff1673ffffffffffffffffffffffffffffffffffffffff163373ffffffffffffffffffffffffffffffffffffffff1614806101b15750600160009054906101000a900473ffffffffffffffffffffffffffffffffffffffff1673ffffffffffffffffffffffffffffffffffffffff163373ffffffffffffffffffffffffffffffffffffffff16145b6101f0576040517f08c379a00000000000000000000000000000000000000000000000000000000081526004016101e790612c90565b60405180910390fd5b600a60009054906101000a900460ff1661023f576040517f08c379a000000000000000000000000000000000000000000000000000000000815260040161023690612c30565b60405180910390fd5b600080600860008060009054906101000a900473ffffffffffffffffffffffffffffffffffffffff1673ffffffffffffffffffffffffffffffffffffffff1673ffffffffffffffffffffffffffffffffffffffff16815260200190815260200160002060009054906101000a900460ff168015610327575060086000600160009054906101000a900473ffffffffffffffffffffffffffffffffffffffff1673ffffffffffffffffffffffffffffffffffffffff1673ffffffffffffffffffffffffffffffffffffffff16815260200190815260200160002060009054906101000a900460ff165b90508115158115151461036f576040517f08c379a000000000000000000000000000000000000000000000000000000000815260040161036690612c50565b60405180910390fd5b6000479050600860003373ffffffffffffffffffffffffffffffffffffffff1673ffffffffffffffffffffffffffffffffffffffff16815260200190815260200160002060009054906101000a900460ff16610400576040517f08c379a00000000000000000000000000000000000000000000000000000000081526004016103f790612bb0565b60405180910390fd5b600760003373ffffffffffffffffffffffffffffffffffffffff1673ffffffffffffffffffffffffffffffffffffffff16815260200190815260200160002054811015610482576040517f08c379a000000000000000000000000000000000000000000000000000000000815260040161047990612bd0565b60405180910390fd5b60003373ffffffffffffffffffffffffffffffffffffffff16600760003373ffffffffffffffffffffffffffffffffffffffff1673ffffffffffffffffffffffffffffffffffffffff168152602001908152602001600020546040516104e790612b80565b60006040518083038185875af1925050503d8060008114610524576040519150601f19603f3d011682016040523d82523d6000602084013e610529565b606091505b505090508061056d576040517f08c379a000000000000000000000000000000000000000000000000000000000815260040161056490612d30565b60405180910390fd5b6000600860003373ffffffffffffffffffffffffffffffffffffffff1673ffffffffffffffffffffffffffffffffffffffff16815260200190815260200160002060006101000a81548160ff021916908315150217905550600160009054906101000a900473ffffffffffffffffffffffffffffffffffffffff1673ffffffffffffffffffffffffffffffffffffffff1660008054906101000a900473ffffffffffffffffffffffffffffffffffffffff1673ffffffffffffffffffffffffffffffffffffffff167f7e60eee2bb7fb00a7c2c55d3e7697bb6f1f6075e558a99a1677bd898b2d2f10061065e610b1c565b60405161066b9190612d90565b60405180910390a350505050565b600a60029054906101000a900473ffffffffffffffffffffffffffffffffffffffff1681565b60008054906101000a900473ffffffffffffffffffffffffffffffffffffffff1673ffffffffffffffffffffffffffffffffffffffff163373ffffffffffffffffffffffffffffffffffffffff1614806107465750600160009054906101000a900473ffffffffffffffffffffffffffffffffffffffff1673ffffffffffffffffffffffffffffffffffffffff163373ffffffffffffffffffffffffffffffffffffffff16145b610785576040517f08c379a000000000000000000000000000000000000000000000000000000000815260040161077c90612c90565b60405180910390fd5b600a60009054906101000a900460ff166107d4576040517f08c379a00000000000000000000000000000000000000000000000000000000081526004016107cb90612c30565b60405180910390fd5b600080600860008060009054906101000a900473ffffffffffffffffffffffffffffffffffffffff1673ffffffffffffffffffffffffffffffffffffffff1673ffffffffffffffffffffffffffffffffffffffff16815260200190815260200160002060009054906101000a900460ff1680156108bc575060086000600160009054906101000a900473ffffffffffffffffffffffffffffffffffffffff1673ffffffffffffffffffffffffffffffffffffffff1673ffffffffffffffffffffffffffffffffffffffff16815260200190815260200160002060009054906101000a900460ff165b905081151581151514610904576040517f08c379a00000000000000000000000000000000000000000000000000000000081526004016108fb90612c50565b60405180910390fd5b600860003373ffffffffffffffffffffffffffffffffffffffff1673ffffffffffffffffffffffffffffffffffffffff16815260200190815260200160002060009054906101000a900460ff1615610991576040517f08c379a000000000000000000000000000000000000000000000000000000000815260040161098890612c70565b60405180910390fd5b600760003373ffffffffffffffffffffffffffffffffffffffff1673ffffffffffffffffffffffffffffffffffffffff168152602001908152602001600020543414610a12576040517f08c379a0000000000000000000000000000000000000000000000000000000008152600401610a0990612bf0565b60405180910390fd5b6001600860003373ffffffffffffffffffffffffffffffffffffffff1673ffffffffffffffffffffffffffffffffffffffff16815260200190815260200160002060006101000a81548160ff021916908315150217905550600160009054906101000a900473ffffffffffffffffffffffffffffffffffffffff1673ffffffffffffffffffffffffffffffffffffffff1660008054906101000a900473ffffffffffffffffffffffffffffffffffffffff1673ffffffffffffffffffffffffffffffffffffffff167f7e60eee2bb7fb00a7c2c55d3e7697bb6f1f6075e558a99a1677bd898b2d2f100610b03610b1c565b604051610b109190612d90565b60405180910390a35050565b610b24612481565b604051806101c0016040528060008054906101000a900473ffffffffffffffffffffffffffffffffffffffff1673ffffffffffffffffffffffffffffffffffffffff168152602001600160009054906101000a900473ffffffffffffffffffffffffffffffffffffffff1673ffffffffffffffffffffffffffffffffffffffff16815260200160025481526020016003548152602001600454815260200160058054610bcf90612f24565b80601f0160208091040260200160405190810160405280929190818152602001828054610bfb90612f24565b8015610c485780601f10610c1d57610100808354040283529160200191610c48565b820191906000526020600020905b815481529060010190602001808311610c2b57829003601f168201915b5050505050815260200160068054610c5f90612f24565b80601f0160208091040260200160405190810160405280929190818152602001828054610c8b90612f24565b8015610cd85780601f10610cad57610100808354040283529160200191610cd8565b820191906000526020600020905b815481529060010190602001808311610cbb57829003601f168201915b50505050508152602001600860008060009054906101000a900473ffffffffffffffffffffffffffffffffffffffff1673ffffffffffffffffffffffffffffffffffffffff1673ffffffffffffffffffffffffffffffffffffffff16815260200190815260200160002060009054906101000a900460ff161515815260200160086000600160009054906101000a900473ffffffffffffffffffffffffffffffffffffffff1673ffffffffffffffffffffffffffffffffffffffff1673ffffffffffffffffffffffffffffffffffffffff16815260200190815260200160002060009054906101000a900460ff1615158152602001600960008060009054906101000a900473ffffffffffffffffffffffffffffffffffffffff1673ffffffffffffffffffffffffffffffffffffffff1673ffffffffffffffffffffffffffffffffffffffff16815260200190815260200160002060009054906101000a900460ff161515815260200160096000600160009054906101000a900473ffffffffffffffffffffffffffffffffffffffff1673ffffffffffffffffffffffffffffffffffffffff1673ffffffffffffffffffffffffffffffffffffffff16815260200190815260200160002060009054906101000a900460ff1615158152602001600a60009054906101000a900460ff1615158152602001600a60019054906101000a900460ff1615158152602001600a60029054906101000a900473ffffffffffffffffffffffffffffffffffffffff1673ffffffffffffffffffffffffffffffffffffffff16815250905090565b60008054906101000a900473ffffffffffffffffffffffffffffffffffffffff1673ffffffffffffffffffffffffffffffffffffffff163373ffffffffffffffffffffffffffffffffffffffff161480610fce5750600160009054906101000a900473ffffffffffffffffffffffffffffffffffffffff1673ffffffffffffffffffffffffffffffffffffffff163373ffffffffffffffffffffffffffffffffffffffff16145b61100d576040517f08c379a000000000000000000000000000000000000000000000000000000000815260040161100490612c90565b60405180910390fd5b600a60009054906101000a900460ff1661105c576040517f08c379a000000000000000000000000000000000000000000000000000000000815260040161105390612c30565b60405180910390fd5b60016000600860008060009054906101000a900473ffffffffffffffffffffffffffffffffffffffff1673ffffffffffffffffffffffffffffffffffffffff1673ffffffffffffffffffffffffffffffffffffffff16815260200190815260200160002060009054906101000a900460ff168015611145575060086000600160009054906101000a900473ffffffffffffffffffffffffffffffffffffffff1673ffffffffffffffffffffffffffffffffffffffff1673ffffffffffffffffffffffffffffffffffffffff16815260200190815260200160002060009054906101000a900460ff165b90508115158115151461118d576040517f08c379a000000000000000000000000000000000000000000000000000000000815260040161118490612c50565b60405180910390fd5b600960003373ffffffffffffffffffffffffffffffffffffffff1673ffffffffffffffffffffffffffffffffffffffff16815260200190815260200160002060009054906101000a900460ff16611219576040517f08c379a000000000000000000000000000000000000000000000000000000000815260040161121090612d70565b60405180910390fd5b6000600960003373ffffffffffffffffffffffffffffffffffffffff1673ffffffffffffffffffffffffffffffffffffffff16815260200190815260200160002060006101000a81548160ff021916908315150217905550600160009054906101000a900473ffffffffffffffffffffffffffffffffffffffff1673ffffffffffffffffffffffffffffffffffffffff1660008054906101000a900473ffffffffffffffffffffffffffffffffffffffff1673ffffffffffffffffffffffffffffffffffffffff167f7e60eee2bb7fb00a7c2c55d3e7697bb6f1f6075e558a99a1677bd898b2d2f10061130a610b1c565b6040516113179190612d90565b60405180910390a35050565b60008054906101000a900473ffffffffffffffffffffffffffffffffffffffff1673ffffffffffffffffffffffffffffffffffffffff163373ffffffffffffffffffffffffffffffffffffffff16146113b1576040517f08c379a00000000000000000000000000000000000000000000000000000000081526004016113a890612d50565b60405180910390fd5b600a60009054906101000a900460ff16611400576040517f08c379a00000000000000000000000000000000000000000000000000000000081526004016113f790612c30565b60405180910390fd5b60016000600860008060009054906101000a900473ffffffffffffffffffffffffffffffffffffffff1673ffffffffffffffffffffffffffffffffffffffff1673ffffffffffffffffffffffffffffffffffffffff16815260200190815260200160002060009054906101000a900460ff1680156114e9575060086000600160009054906101000a900473ffffffffffffffffffffffffffffffffffffffff1673ffffffffffffffffffffffffffffffffffffffff1673ffffffffffffffffffffffffffffffffffffffff16815260200190815260200160002060009054906101000a900460ff165b905081151581151514611531576040517f08c379a000000000000000000000000000000000000000000000000000000000815260040161152890612c50565b60405180910390fd5b600960008060009054906101000a900473ffffffffffffffffffffffffffffffffffffffff1673ffffffffffffffffffffffffffffffffffffffff1673ffffffffffffffffffffffffffffffffffffffff16815260200190815260200160002060009054906101000a900460ff16158015611618575060096000600160009054906101000a900473ffffffffffffffffffffffffffffffffffffffff1673ffffffffffffffffffffffffffffffffffffffff1673ffffffffffffffffffffffffffffffffffffffff16815260200190815260200160002060009054906101000a900460ff16155b611657576040517f08c379a000000000000000000000000000000000000000000000000000000000815260040161164e90612cd0565b60405180910390fd5b60025447101561169c576040517f08c379a000000000000000000000000000000000000000000000000000000000815260040161169390612d10565b60405180910390fd5b60008060009054906101000a900473ffffffffffffffffffffffffffffffffffffffff1673ffffffffffffffffffffffffffffffffffffffff1660076000600160009054906101000a900473ffffffffffffffffffffffffffffffffffffffff1673ffffffffffffffffffffffffffffffffffffffff1673ffffffffffffffffffffffffffffffffffffffff1681526020019081526020016000205460405161174490612b80565b60006040518083038185875af1925050503d8060008114611781576040519150601f19603f3d011682016040523d82523d6000602084013e611786565b606091505b505090506000600160009054906101000a900473ffffffffffffffffffffffffffffffffffffffff1673ffffffffffffffffffffffffffffffffffffffff16600760008060009054906101000a900473ffffffffffffffffffffffffffffffffffffffff1673ffffffffffffffffffffffffffffffffffffffff1673ffffffffffffffffffffffffffffffffffffffff1681526020019081526020016000205460405161183290612b80565b60006040518083038185875af1925050503d806000811461186f576040519150601f19603f3d011682016040523d82523d6000602084013e611874565b606091505b505090508180156118825750805b6118c1576040517f08c379a00000000000000000000000000000000000000000000000000000000081526004016118b890612cf0565b60405180910390fd5b6000600860008060009054906101000a900473ffffffffffffffffffffffffffffffffffffffff1673ffffffffffffffffffffffffffffffffffffffff1673ffffffffffffffffffffffffffffffffffffffff16815260200190815260200160002060006101000a81548160ff021916908315150217905550600060086000600160009054906101000a900473ffffffffffffffffffffffffffffffffffffffff1673ffffffffffffffffffffffffffffffffffffffff1673ffffffffffffffffffffffffffffffffffffffff16815260200190815260200160002060006101000a81548160ff0219169083151502179055506000600a60006101000a81548160ff021916908315150217905550600160009054906101000a900473ffffffffffffffffffffffffffffffffffffffff1673ffffffffffffffffffffffffffffffffffffffff1660008054906101000a900473ffffffffffffffffffffffffffffffffffffffff1673ffffffffffffffffffffffffffffffffffffffff167f7e60eee2bb7fb00a7c2c55d3e7697bb6f1f6075e558a99a1677bd898b2d2f100611a68610b1c565b604051611a759190612d90565b60405180910390a350505050565b60008054906101000a900473ffffffffffffffffffffffffffffffffffffffff1673ffffffffffffffffffffffffffffffffffffffff163373ffffffffffffffffffffffffffffffffffffffff161480611b2a5750600160009054906101000a900473ffffffffffffffffffffffffffffffffffffffff1673ffffffffffffffffffffffffffffffffffffffff163373ffffffffffffffffffffffffffffffffffffffff16145b611b69576040517f08c379a0000000000000000000000000000000000000000000000000000000008152600401611b6090612c90565b60405180910390fd5b600a60009054906101000a900460ff16611bb8576040517f08c379a0000000000000000000000000000000000000000000000000000000008152600401611baf90612c30565b60405180910390fd5b60016000600860008060009054906101000a900473ffffffffffffffffffffffffffffffffffffffff1673ffffffffffffffffffffffffffffffffffffffff1673ffffffffffffffffffffffffffffffffffffffff16815260200190815260200160002060009054906101000a900460ff168015611ca1575060086000600160009054906101000a900473ffffffffffffffffffffffffffffffffffffffff1673ffffffffffffffffffffffffffffffffffffffff1673ffffffffffffffffffffffffffffffffffffffff16815260200190815260200160002060009054906101000a900460ff165b905081151581151514611ce9576040517f08c379a0000000000000000000000000000000000000000000000000000000008152600401611ce090612c50565b60405180910390fd5b600960003373ffffffffffffffffffffffffffffffffffffffff1673ffffffffffffffffffffffffffffffffffffffff16815260200190815260200160002060009054906101000a900460ff1615611d76576040517f08c379a0000000000000000000000000000000000000000000000000000000008152600401611d6d90612c10565b60405180910390fd5b6001600960003373ffffffffffffffffffffffffffffffffffffffff1673ffffffffffffffffffffffffffffffffffffffff16815260200190815260200160002060006101000a81548160ff021916908315150217905550600960008060009054906101000a900473ffffffffffffffffffffffffffffffffffffffff1673ffffffffffffffffffffffffffffffffffffffff1673ffffffffffffffffffffffffffffffffffffffff16815260200190815260200160002060009054906101000a900460ff168015611eb3575060096000600160009054906101000a900473ffffffffffffffffffffffffffffffffffffffff1673ffffffffffffffffffffffffffffffffffffffff1673ffffffffffffffffffffffffffffffffffffffff16815260200190815260200160002060009054906101000a900460ff165b156123a357600760003373ffffffffffffffffffffffffffffffffffffffff1673ffffffffffffffffffffffffffffffffffffffff16815260200190815260200160002054600254611f059190612e75565b471015611f47576040517f08c379a0000000000000000000000000000000000000000000000000000000008152600401611f3e90612cb0565b60405180910390fd5b60008060009054906101000a900473ffffffffffffffffffffffffffffffffffffffff1673ffffffffffffffffffffffffffffffffffffffff16600760008060009054906101000a900473ffffffffffffffffffffffffffffffffffffffff1673ffffffffffffffffffffffffffffffffffffffff1673ffffffffffffffffffffffffffffffffffffffff16815260200190815260200160002054604051611fee90612b80565b60006040518083038185875af1925050503d806000811461202b576040519150601f19603f3d011682016040523d82523d6000602084013e612030565b606091505b505090506000600160009054906101000a900473ffffffffffffffffffffffffffffffffffffffff1673ffffffffffffffffffffffffffffffffffffffff1660076000600160009054906101000a900473ffffffffffffffffffffffffffffffffffffffff1673ffffffffffffffffffffffffffffffffffffffff1673ffffffffffffffffffffffffffffffffffffffff168152602001908152602001600020546040516120dd90612b80565b60006040518083038185875af1925050503d806000811461211a576040519150601f19603f3d011682016040523d82523d6000602084013e61211f565b606091505b5050905081801561212d5750805b61216c576040517f08c379a000000000000000000000000000000000000000000000000000000000815260040161216390612cf0565b60405180910390fd5b6000604051806040016040528060008054906101000a900473ffffffffffffffffffffffffffffffffffffffff1673ffffffffffffffffffffffffffffffffffffffff1673ffffffffffffffffffffffffffffffffffffffff168152602001600160009054906101000a900473ffffffffffffffffffffffffffffffffffffffff1673ffffffffffffffffffffffffffffffffffffffff1673ffffffffffffffffffffffffffffffffffffffff16815250905060005b60028110156123685760006009600084846002811061226a577f4e487b7100000000000000000000000000000000000000000000000000000000600052603260045260246000fd5b602002015173ffffffffffffffffffffffffffffffffffffffff1673ffffffffffffffffffffffffffffffffffffffff16815260200190815260200160002060006101000a81548160ff0219169083151502179055506000600860008484600281106122ff577f4e487b7100000000000000000000000000000000000000000000000000000000600052603260045260246000fd5b602002015173ffffffffffffffffffffffffffffffffffffffff1673ffffffffffffffffffffffffffffffffffffffff16815260200190815260200160002060006101000a81548160ff021916908315150217905550808061236090612f56565b915050612222565b506000600a60006101000a81548160ff0219169083151502179055506001600a60016101000a81548160ff0219169083151502179055505050505b600160009054906101000a900473ffffffffffffffffffffffffffffffffffffffff1673ffffffffffffffffffffffffffffffffffffffff1660008054906101000a900473ffffffffffffffffffffffffffffffffffffffff1673ffffffffffffffffffffffffffffffffffffffff167f7e60eee2bb7fb00a7c2c55d3e7697bb6f1f6075e558a99a1677bd898b2d2f10061243c610b1c565b6040516124499190612d90565b60405180910390a35050565b600081836124639190612e1b565b905092915050565b600081836124799190612dea565b905092915050565b604051806101c00160405280600073ffffffffffffffffffffffffffffffffffffffff168152602001600073ffffffffffffffffffffffffffffffffffffffff1681526020016000815260200160008152602001600081526020016060815260200160608152602001600015158152602001600015158152602001600015158152602001600015158152602001600015158152602001600015158152602001600073ffffffffffffffffffffffffffffffffffffffff1681525090565b61254781612ea9565b82525050565b61255681612ea9565b82525050565b61256581612ebb565b82525050565b600061257682612db2565b6125808185612dc8565b9350612590818560208601612ef1565b6125998161302c565b840191505092915050565b60006125b1600f83612dd9565b91507f4e6f207374616b656420796574212e00000000000000000000000000000000006000830152602082019050919050565b60006125f1602283612dd9565b91507f4e6f7420656e6f756768204d61746963206c65667420746f207769746864726160008301527f772e0000000000000000000000000000000000000000000000000000000000006020830152604082019050919050565b6000612657601e83612dd9565b91507f496e636f7272656374207374616b696e6720616d6f756e742073656e742e00006000830152602082019050919050565b6000612697602783612dd9565b91507f20416c72656164792069737375656420612063616e63656c6c6174696f6e207260008301527f6571756573742e000000000000000000000000000000000000000000000000006020830152604082019050919050565b60006126fd601783612dd9565b91507f41677265656d656e74206973206e6f74206163746976650000000000000000006000830152602082019050919050565b600061273d602d83612dd9565b91507f41677265656d656e742073746174757320646f6573206e6f74207065726d697460008301527f207468697320616374696f6e2e000000000000000000000000000000000000006020830152604082019050919050565b60006127a3601983612dd9565b91507f416c7265616479207374616b652074686520616d6f756e742e000000000000006000830152602082019050919050565b60006127e3601d83612dd9565b91507f4f6e6c7920616c6c6f772061677265656d656e742070617274696573210000006000830152602082019050919050565b6000612823601183612dd9565b91507f4e6f7420656e6f75676820204e454f4e2e0000000000000000000000000000006000830152602082019050919050565b6000612863603183612dd9565b91507f43616e6e6f7420636f6e6669726d206173206174206c65617374206f6e65202060008301527f7265717565737465642063616e63656c210000000000000000000000000000006020830152604082019050919050565b60006128c9601383612dd9565b91507f5472616e7366657220686173206661696c6564000000000000000000000000006000830152602082019050919050565b6000612909601083612dd9565b91507f4e6f7420656e6f756768204d61746963000000000000000000000000000000006000830152602082019050919050565b6000612949600083612dbd565b9150600082019050919050565b6000612963601083612dd9565b91507f5472616e73666572206661696c65642e000000000000000000000000000000006000830152602082019050919050565b60006129a3601a83612dd9565b91507f4f6e6c7920616c6c6f772061677265656d656e742062757965720000000000006000830152602082019050919050565b60006129e3602783612dd9565b91507f446f65736e2774206861766520612063616e63656c207265717565737420746f60008301527f207265766f6b65000000000000000000000000000000000000000000000000006020830152604082019050919050565b60006101c083016000830151612a55600086018261253e565b506020830151612a68602086018261253e565b506040830151612a7b6040860182612b71565b506060830151612a8e6060860182612b71565b506080830151612aa16080860182612b71565b5060a083015184820360a0860152612ab9828261256b565b91505060c083015184820360c0860152612ad3828261256b565b91505060e0830151612ae860e086018261255c565b50610100830151612afd61010086018261255c565b50610120830151612b1261012086018261255c565b50610140830151612b2761014086018261255c565b50610160830151612b3c61016086018261255c565b50610180830151612b5161018086018261255c565b506101a0830151612b666101a086018261253e565b508091505092915050565b612b7a81612ee7565b82525050565b6000612b8b8261293c565b9150819050919050565b6000602082019050612baa600083018461254d565b92915050565b60006020820190508181036000830152612bc9816125a4565b9050919050565b60006020820190508181036000830152612be9816125e4565b9050919050565b60006020820190508181036000830152612c098161264a565b9050919050565b60006020820190508181036000830152612c298161268a565b9050919050565b60006020820190508181036000830152612c49816126f0565b9050919050565b60006020820190508181036000830152612c6981612730565b9050919050565b60006020820190508181036000830152612c8981612796565b9050919050565b60006020820190508181036000830152612ca9816127d6565b9050919050565b60006020820190508181036000830152612cc981612816565b9050919050565b60006020820190508181036000830152612ce981612856565b9050919050565b60006020820190508181036000830152612d09816128bc565b9050919050565b60006020820190508181036000830152612d29816128fc565b9050919050565b60006020820190508181036000830152612d4981612956565b9050919050565b60006020820190508181036000830152612d6981612996565b9050919050565b60006020820190508181036000830152612d89816129d6565b9050919050565b60006020820190508181036000830152612daa8184612a3c565b905092915050565b600081519050919050565b600081905092915050565b600082825260208201905092915050565b600082825260208201905092915050565b6000612df582612ee7565b9150612e0083612ee7565b925082612e1057612e0f612fce565b5b828204905092915050565b6000612e2682612ee7565b9150612e3183612ee7565b9250817fffffffffffffffffffffffffffffffffffffffffffffffffffffffffffffffff0483118215151615612e6a57612e69612f9f565b5b828202905092915050565b6000612e8082612ee7565b9150612e8b83612ee7565b925082821015612e9e57612e9d612f9f565b5b828203905092915050565b6000612eb482612ec7565b9050919050565b60008115159050919050565b600073ffffffffffffffffffffffffffffffffffffffff82169050919050565b6000819050919050565b60005b83811015612f0f578082015181840152602081019050612ef4565b83811115612f1e576000848401525b50505050565b60006002820490506001821680612f3c57607f821691505b60208210811415612f5057612f4f612ffd565b5b50919050565b6000612f6182612ee7565b91507fffffffffffffffffffffffffffffffffffffffffffffffffffffffffffffffff821415612f9457612f93612f9f565b5b600182019050919050565b7f4e487b7100000000000000000000000000000000000000000000000000000000600052601160045260246000fd5b7f4e487b7100000000000000000000000000000000000000000000000000000000600052601260045260246000fd5b7f4e487b7100000000000000000000000000000000000000000000000000000000600052602260045260246000fd5b6000601f19601f830116905091905056fea264697066735822122003b7fbcf753184da2116e963cd8583f70a7a2e083b1a7c0da0e369d3841c2a4f64736f6c63430008000033a2646970667358221220527f280df0c98c006b7e84610d3182c8439d5a68c6ba68b3e561e900ded8d1ab64736f6c63430008000033",
  "linkReferences": {},
  "deployedLinkReferences": {}
}